:100000000C9456000C9473000C9473000C947300C1
:100010000C9473000C9473000C9473000C94730094
:100020000C9473000C9473000C9473000C94D00423
:100030000C9473000C9473000C9473000C94730074
:100040000C9473000C9473000C94C6050C94F10589
:100050000C9473000C9473000C9473000C94730054
:100060000C9473000C94730084008B008D0093003B
:100070009A009F00A200A500B300AD002F03440327
:100080004A03560359037203900369039A03C10399
:10009000B803CB030304F9030F042D044D04230418
:1000A0005704810477048B04CD04C30411241FBEBC
:1000B000CFEFD8E0DEBFCDBF11E0A0E0B1E0E8EBCC
:1000C000FCE002C005900D92AC30B107D9F721E0F9
:1000D000ACE0B1E001C01D92AE35B207E1F70E947D
:1000E000D2020C945A060C940000813011F4299A23
:1000F00008952998089590E08A309105A0F5FC01B3
:10010000EC5CFF4F0C9454065A9A5B9A5C9A5D9A89
:100110005E9A5F9A20C05A9819C05A9A5B9A5C9866
:100120005D9A5E9A05C05A9A5B9A5C9A5D9A5E984F
:100130005F981FC05A985B9A5C9A5D9812C05A9A51
:100140005B980DC05A9A5B9810C05A9A5B9A5C9A59
:100150005D985E985F98289808955A9A5B9A5C9A81
:100160005D9A5E9805C05A9A5B9A5C9A5D9A5E9A0F
:100170005F9A289A089580915C0180935D01329B7B
:1001800003C032990DC016C0339BFBCF8FE99FE0AF
:100190000197F1F700C000003299F3CF8FE0089586
:1001A000339908C08FE99FE00197F1F700C0000084
:1001B000339B02C08FEF089580EF0895CF93809115
:1001C0001301CAE06C2F0E943406892F0E947B0025
:1001D00080910F010E94750040988FE99FE0019780
:1001E000F1F700C00000409A809113016C2F0E942B
:1001F00034060E947B0080910E010E947500419898
:100200008FE99FE00197F1F700C00000419A8091CB
:1002100014016C2F0E943406892F0E947B0080916C
:1002200001010E9475002D988FE99FE00197F1F779
:1002300000C000002D9A809114016C2F0E9434069A
:100240000E947B0080910D010E9475002C988FE91F
:100250009FE00197F1F700C000002C9A80911501F2
:100260006C2F0E943406892F0E947B008091000130
:100270000E9475002B988FE99FE00197F1F700C06D
:1002800000002B9A809115016C2F0E9434060E9469
:100290007B0080910C010E9475002A988FE99FE0F5
:1002A0000197F1F700C000002A9ACF910895CF93EB
:1002B00080911001CAE06C2F0E943406892F0E94A1
:1002C0007B0080910F010E94750040988FE99FE0AC
:1002D0000197F1F700C00000409A809110016C2F47
:1002E0000E9434060E947B0080910E010E947500DE
:1002F00041988FE99FE00197F1F700C00000419A13
:10030000809111016C2F0E943406892F0E947B007E
:10031000809101010E9475002D988FE99FE001975F
:10032000F1F700C000002D9A809111016C2F0E94FE
:1003300034060E947B0080910D010E9475002C986C
:100340008FE99FE00197F1F700C000002C9A80919F
:1003500012016C2F0E943406892F0E947B0080912D
:1003600000010E9475002B988FE99FE00197F1F73B
:1003700000C000002B9A809112016C2F0E9434065D
:100380000E947B0080910C010E9475002A988FE9E1
:100390009FE00197F1F700C000002A9ACF910895DD
:1003A000CF93DF938091080190910901CAE0D0E0DA
:1003B000BE010E9440060E947B0080910F010E94B6
:1003C000750040988FE99FE00197F1F700C00000A9
:1003D000409A8091080190910901BE010E94400657
:1003E00088E3860F0E947B0080910E010E947500B9
:1003F00041988FE99FE00197F1F700C00000419A12
:10040000809107016C2F0E943406892F0E947B0087
:10041000809101010E9475002D988FE99FE001975E
:10042000F1F700C000002D9A809107016C2F0E9407
:1004300034060E947B0080910D010E9475002C986B
:100440008FE99FE00197F1F700C000002C9A80919E
:1004500006016C2F0E943406892F0E947B00809138
:1004600000010E9475002B988FE99FE00197F1F73A
:1004700000C000002B9A809106016C2F0E94340668
:100480000E947B0080910C010E9475002A988FE9E0
:100490009FE00197F1F700C000002A9ADF91CF9109
:1004A0000895CF93DF938091040190910501CAE0F4
:1004B000D0E0BE010E9440060E947B0080910F01A7
:1004C0000E94750040988FE99FE00197F1F700C006
:1004D0000000409A8091040190910501BE010E94A4
:1004E000400688E3860F0E947B0080910E010E94E7
:1004F000750041988FE99FE00197F1F700C0000077
:10050000419A809103016C2F0E943406892F0E942A
:100510007B00809101010E9475002D988FE99FE07A
:100520000197F1F700C000002D9A809103016C2F14
:100530000E9434060E947B0080910D010E9475008C
:100540002C988FE99FE00197F1F700C000002C9AEA
:10055000809102016C2F0E943406892F0E947B003B
:10056000809100010E9475002B988FE99FE0019710
:10057000F1F700C000002B9A809102016C2F0E94BD
:1005800034060E947B0080910C010E9475002A981D
:100590008FE99FE00197F1F700C000002A9ADF91F0
:1005A000CF9108953C9A44983A98429A3B98439A3E
:1005B000529A539A549A559A569A579A209A219A2F
:1005C000389A399A259A249A239A229A5A985B98AB
:1005D0005C985D985E985F9828982998409A419A0F
:1005E0002D9A2C9A2B9A2A9A8BE08093810089EF7E
:1005F00090E0909389008093880082E080936F0060
:1006000087E690E00E941B067894D5E1C1E086E180
:10061000F82E97E1E92E20EDC22E27E0D22E12E12E
:1006200033E1932E44E1842E50E1752E61E1662E74
:100630007FE0572E0BE0E8EEAE2EE3E0BE2E0E94E8
:10064000BB0080935C01E09116014E2F50E04831D1
:100650005105A8F7FA01E25CFF4F0C945406109282
:100660000F0110920E0110920D0110920C010E94C8
:10067000DE0080915C018F3019F4C0931601DFCF4A
:10068000803FE9F684E003C08F3FC9F682E08093A3
:100690001601D5CF0E94D00180915C018F3011F4FA
:1006A00083E0F5CF803F59F68EE0F1CF8F3F39F6EA
:1006B000B3C0109201011092000180911501809346
:1006C0001201809114018093110180911301809394
:1006D00010010E94570180915C018F3F09F0AFCF5C
:1006E00085E0D5CFC09300010E94570180915C0145
:1006F0008F3089F480915D018F3F09F0A0CF809108
:1007000012018F5F883118F48093120102C0109299
:10071000120187E0BCCF803F09F091CF86E0B7CFD0
:100720000E94570180915C018F3F09F088CF1092A1
:10073000000125C0C09301010E94570180915C0116
:100740008F3089F480915D018F3F09F078CF8091DF
:1007500011018F5F8C3318F48093110102C0109245
:1007600011018AE094CF803F09F069CF89E08FCFF3
:100770000E94570180915C018F3F09F060CF88E0B3
:1007800086CF0E94570180915C018F3F09F057CFBF
:100790001092010135C0C0930F010E945701809152
:1007A0005C018F3089F480915D018F3F09F047CF64
:1007B000809110018F5F8C3318F48093100102C078
:1007C000109210018DE063CF803F09F038CFB092D6
:1007D0000B01A0920A018091120180931501809172
:1007E00011018093140180911001809313018CE01A
:1007F0004ECF0E94570180915C018F3F09F01FCFBF
:10080000009316011CCF0E94570180915C018F3F1D
:1008100009F015CF10920F011092160110CF10920F
:1008200001011092000180910601809302018091E4
:100830000701809303018091080190910901909331
:100840000501809304010E94510280915C018F3F59
:1008500009F0F5CE50921601F2CEC09300010E942D
:10086000510280915C018F3091F480915D018F3F46
:1008700009F0E5CE809102018F5F803218F48093F9
:10088000020102C01092020160921601D8CE803F90
:1008900009F0D5CE70921601D2CE0E9451028091FD
:1008A0005C018F3F09F0CBCE1092000127C0C093AE
:1008B00001010E94510280915C018F3091F480917E
:1008C0005D018F3F09F0BBCE809103018F5F8D30BA
:1008D00018F48093030102C0109203018092160164
:1008E000AECE803F09F0ABCE90921601A8CE0E940A
:1008F000510280915C018F3F09F0A1CE1093160147
:100900009ECE0E94510280915C018F3F09F097CEEC
:10091000109201013FC0C0930F010E9451028091CB
:100920005C018F30D1F480915D018F3F09F087CE5B
:1009300080910401909105010196843328E092078B
:1009400028F4909305018093040104C0D09205011E
:10095000C0920401E092160172CE803F09F06FCE82
:100960008091020180930601809103018093070129
:1009700080910401909105019093090180930801F1
:10098000F09216015CCE0E94510280915C018F3F73
:1009900009F055CED093160152CE0E94510235CFA8
:1009A0001F920F920FB60F9211242F933F935F93D4
:1009B0006F937F938F939F93AF93BF9380910A011F
:1009C00090910B01009729F0019790930B01809370
:1009D0000A0180910A0190910B01892B09F0C8C08E
:1009E000809113018F5F8093130190911601292F3D
:1009F0002D7F71F480FD06C091E0909301019093EA
:100A0000000106C09111B0C01092010110920001C6
:100A10008C3338F010921301809114018F5F809312
:100A20001401809114018C3338F0109214018091DC
:100A300015018F5F8093150180911501883138F081
:100A400010921501809106018F5F809306018091BD
:100A50000701823009F52091080130910901C9018F
:100A600083709927892B39F4C90164E670E00E94EC
:100A70004006892B39F4C90160E971E00E94400603
:100A8000892B51F4809106018E3130F081E0809302
:100A9000060183E08093070180910701823009F508
:100AA0002091080130910901C90183709927892B90
:100AB00071F4C90164E670E00E944006892B89F454
:100AC000C90160E971E00E944006892B51F08091D4
:100AD00006018D3130F081E08093060183E0809340
:100AE000070180910701982F9D7F913051F085304B
:100AF00041F099EF980F923020F08A3011F08C304D
:100B000051F490910601903230F091E090930601FB
:100B10008F5F8093070180910701982F9D7F94300C
:100B200011F0993051F4909106019F3130F091E02D
:100B3000909306018F5F80930701809107018D30AC
:100B400060F081E080930701809108019091090194
:100B50000196909309018093080188EE93E09093A9
:100B60000B0180930A0104C0923009F44DCF50CF9D
:100B7000BF91AF919F918F917F916F915F913F91C5
:100B80002F910F900FBE0F901F9018951F920F92EC
:100B90000FB60F9211242F938F939F93EF93FF9390
:100BA0008091C0009091C6008871E0911901EF5FBB
:100BB000EF7120911801E21739F0E0931901F0E08C
:100BC000E45EFE4F908301C082E080931701FF91A5
:100BD000EF919F918F912F910F900FBE0F901F90CB
:100BE00018951F920F920FB60F9211248F939F9317
:100BF000EF93FF9390911B0180911A01981769F070
:100C0000E0911A01EF5FEF71E0931A01F0E0E45C0C
:100C1000FE4F80818093C60005C08091C1008F7D0A
:100C20008093C100FF91EF919F918F910F900FBE24
:100C30000F901F90189510921B0110921A0110929C
:100C400019011092180197FF04C022E02093C00000
:100C50009F779093C5008093C40088E98093C1007A
:100C600086E08093C2000895991B79E004C0991F23
:100C7000961708F0961B881F7A95C9F780950895F6
:100C8000AA1BBB1B51E107C0AA1FBB1FA617B707B2
:100C900010F0A61BB70B881F991F5A95A9F78095CE
:100CA0009095BC01CD010895EE0FFF1F0590F491C2
:080CB000E02D0994F894FFCF38
:0C0CB8000101010112000101E207E80344
:00000001FF
